{
  "contractName": "Piggycontract",
  "abi": [
    {
      "anonymous": false,
      "inputs": [
        {
          "indexed": true,
          "internalType": "address",
          "name": "owner",
          "type": "address"
        },
        {
          "indexed": true,
          "internalType": "address",
          "name": "approved",
          "type": "address"
        },
        {
          "indexed": true,
          "internalType": "uint256",
          "name": "tokenId",
          "type": "uint256"
        }
      ],
      "name": "Approval",
      "type": "event"
    },
    {
      "anonymous": false,
      "inputs": [
        {
          "indexed": false,
          "internalType": "address",
          "name": "owner",
          "type": "address"
        },
        {
          "indexed": false,
          "internalType": "uint256",
          "name": "pigId",
          "type": "uint256"
        },
        {
          "indexed": false,
          "internalType": "uint256",
          "name": "mumId",
          "type": "uint256"
        },
        {
          "indexed": false,
          "internalType": "uint256",
          "name": "dadId",
          "type": "uint256"
        },
        {
          "indexed": false,
          "internalType": "uint256",
          "name": "genes",
          "type": "uint256"
        }
      ],
      "name": "Birth",
      "type": "event"
    },
    {
      "anonymous": false,
      "inputs": [
        {
          "indexed": false,
          "internalType": "address",
          "name": "_from",
          "type": "address"
        },
        {
          "indexed": false,
          "internalType": "address",
          "name": "_to",
          "type": "address"
        },
        {
          "indexed": false,
          "internalType": "uint256",
          "name": "_tokenId",
          "type": "uint256"
        }
      ],
      "name": "Transfer",
      "type": "event"
    },
    {
      "constant": true,
      "inputs": [],
      "name": "CREATION_LIMIT_GEN0",
      "outputs": [
        {
          "internalType": "uint256",
          "name": "",
          "type": "uint256"
        }
      ],
      "payable": false,
      "stateMutability": "view",
      "type": "function"
    },
    {
      "constant": true,
      "inputs": [
        {
          "internalType": "uint256",
          "name": "",
          "type": "uint256"
        }
      ],
      "name": "PiggyIndexToOwner",
      "outputs": [
        {
          "internalType": "address",
          "name": "",
          "type": "address"
        }
      ],
      "payable": false,
      "stateMutability": "view",
      "type": "function"
    },
    {
      "constant": true,
      "inputs": [],
      "name": "gen0Counter",
      "outputs": [
        {
          "internalType": "uint256",
          "name": "",
          "type": "uint256"
        }
      ],
      "payable": false,
      "stateMutability": "view",
      "type": "function"
    },
    {
      "constant": true,
      "inputs": [],
      "name": "name",
      "outputs": [
        {
          "internalType": "string",
          "name": "",
          "type": "string"
        }
      ],
      "payable": false,
      "stateMutability": "view",
      "type": "function"
    },
    {
      "constant": true,
      "inputs": [],
      "name": "owner",
      "outputs": [
        {
          "internalType": "address",
          "name": "",
          "type": "address"
        }
      ],
      "payable": false,
      "stateMutability": "view",
      "type": "function"
    },
    {
      "constant": true,
      "inputs": [],
      "name": "symbol",
      "outputs": [
        {
          "internalType": "string",
          "name": "",
          "type": "string"
        }
      ],
      "payable": false,
      "stateMutability": "view",
      "type": "function"
    },
    {
      "constant": false,
      "inputs": [
        {
          "internalType": "uint256",
          "name": "_genes",
          "type": "uint256"
        },
        {
          "internalType": "address",
          "name": "_owner",
          "type": "address"
        }
      ],
      "name": "createPiggyGen0",
      "outputs": [
        {
          "internalType": "uint256",
          "name": "",
          "type": "uint256"
        }
      ],
      "payable": false,
      "stateMutability": "nonpayable",
      "type": "function"
    },
    {
      "constant": true,
      "inputs": [
        {
          "internalType": "uint256",
          "name": "pigId",
          "type": "uint256"
        }
      ],
      "name": "getPiggy",
      "outputs": [
        {
          "internalType": "uint256",
          "name": "genes",
          "type": "uint256"
        },
        {
          "internalType": "uint64",
          "name": "birthTime",
          "type": "uint64"
        },
        {
          "internalType": "uint32",
          "name": "mumId",
          "type": "uint32"
        },
        {
          "internalType": "uint32",
          "name": "dadId",
          "type": "uint32"
        },
        {
          "internalType": "uint16",
          "name": "generation",
          "type": "uint16"
        }
      ],
      "payable": false,
      "stateMutability": "view",
      "type": "function"
    },
    {
      "constant": true,
      "inputs": [
        {
          "internalType": "address",
          "name": "owner",
          "type": "address"
        }
      ],
      "name": "balanceOf",
      "outputs": [
        {
          "internalType": "uint256",
          "name": "balance",
          "type": "uint256"
        }
      ],
      "payable": false,
      "stateMutability": "view",
      "type": "function"
    },
    {
      "constant": true,
      "inputs": [],
      "name": "totalSupply",
      "outputs": [
        {
          "internalType": "uint256",
          "name": "total",
          "type": "uint256"
        }
      ],
      "payable": false,
      "stateMutability": "view",
      "type": "function"
    },
    {
      "constant": true,
      "inputs": [
        {
          "internalType": "uint256",
          "name": "tokenId",
          "type": "uint256"
        }
      ],
      "name": "ownerOf",
      "outputs": [
        {
          "internalType": "address",
          "name": "owner",
          "type": "address"
        }
      ],
      "payable": false,
      "stateMutability": "view",
      "type": "function"
    },
    {
      "constant": false,
      "inputs": [
        {
          "internalType": "address",
          "name": "_to",
          "type": "address"
        },
        {
          "internalType": "uint256",
          "name": "_tokenId",
          "type": "uint256"
        }
      ],
      "name": "transfer",
      "outputs": [],
      "payable": false,
      "stateMutability": "nonpayable",
      "type": "function"
    }
  ],
  "bytecode": "0x6080604052336000806101000a81548173ffffffffffffffffffffffffffffffffffffffff021916908373ffffffffffffffffffffffffffffffffffffffff160217905550610ced806100536000396000f3fe608060405234801561001057600080fd5b50600436106100b45760003560e01c8063a9059cbb11610071578063a9059cbb146102ed578063b48343301461033b578063c79a56f114610359578063da75ce34146103bb578063e939a9eb1461044d578063ef5e94aa146104bb576100b4565b806306fdde03146100b957806318160ddd1461013c5780636352211e1461015a57806370a08231146101c85780638da5cb5b1461022057806395d89b411461026a575b600080fd5b6100c16104d9565b6040518080602001828103825283818151815260200191508051906020019080838360005b838110156101015780820151818401526020810190506100e6565b50505050905090810190601f16801561012e5780820380516001836020036101000a031916815260200191505b509250505060405180910390f35b610144610512565b6040518082815260200191505060405180910390f35b6101866004803603602081101561017057600080fd5b810190808035906020019092919050505061051f565b604051808273ffffffffffffffffffffffffffffffffffffffff1673ffffffffffffffffffffffffffffffffffffffff16815260200191505060405180910390f35b61020a600480360360208110156101de57600080fd5b81019080803573ffffffffffffffffffffffffffffffffffffffff16906020019092919050505061055c565b6040518082815260200191505060405180910390f35b6102286105a5565b604051808273ffffffffffffffffffffffffffffffffffffffff1673ffffffffffffffffffffffffffffffffffffffff16815260200191505060405180910390f35b6102726105ca565b6040518080602001828103825283818151815260200191508051906020019080838360005b838110156102b2578082015181840152602081019050610297565b50505050905090810190601f1680156102df5780820380516001836020036101000a031916815260200191505b509250505060405180910390f35b6103396004803603604081101561030357600080fd5b81019080803573ffffffffffffffffffffffffffffffffffffffff16906020019092919080359060200190929190505050610603565b005b6103436106e4565b6040518082815260200191505060405180910390f35b6103a56004803603604081101561036f57600080fd5b8101908080359060200190929190803573ffffffffffffffffffffffffffffffffffffffff1690602001909291905050506106e9565b6040518082815260200191505060405180910390f35b6103e7600480360360208110156103d157600080fd5b810190808035906020019092919050505061077c565b604051808681526020018567ffffffffffffffff1667ffffffffffffffff1681526020018463ffffffff1663ffffffff1681526020018363ffffffff1663ffffffff1681526020018261ffff1661ffff1681526020019550505050505060405180910390f35b6104796004803603602081101561046357600080fd5b8101908080359060200190929190505050610811565b604051808273ffffffffffffffffffffffffffffffffffffffff1673ffffffffffffffffffffffffffffffffffffffff16815260200191505060405180910390f35b6104c3610844565b6040518082815260200191505060405180910390f35b6040518060400160405280600a81526020017f436f726f6e61506967730000000000000000000000000000000000000000000081525081565b6000600180549050905090565b60006002600083815260200190815260200160002060009054906101000a900473ffffffffffffffffffffffffffffffffffffffff169050919050565b6000600360008373ffffffffffffffffffffffffffffffffffffffff1673ffffffffffffffffffffffffffffffffffffffff168152602001908152602001600020549050919050565b6000809054906101000a900473ffffffffffffffffffffffffffffffffffffffff1681565b6040518060400160405280600381526020017f435047000000000000000000000000000000000000000000000000000000000081525081565b600073ffffffffffffffffffffffffffffffffffffffff168273ffffffffffffffffffffffffffffffffffffffff161415610689576040517f08c379a0000000000000000000000000000000000000000000000000000000008152600401808060200182810382526025815260200180610c946025913960400191505060405180910390fd5b3073ffffffffffffffffffffffffffffffffffffffff168273ffffffffffffffffffffffffffffffffffffffff1614156106c257600080fd5b6106cc338261084a565b6106d557600080fd5b6106e03383836108b6565b5050565b600a81565b60008060009054906101000a900473ffffffffffffffffffffffffffffffffffffffff1673ffffffffffffffffffffffffffffffffffffffff163373ffffffffffffffffffffffffffffffffffffffff161461074457600080fd5b600a6004541061075357600080fd5b60046000815480929190600101919050555061077460008060008686610a80565b905092915050565b6000806000806000806001878154811061079257fe5b906000526020600020906002020190508060010160009054906101000a900467ffffffffffffffff1694508060010160089054906101000a900463ffffffff16935080600101600c9054906101000a900463ffffffff1692508060010160109054906101000a900461ffff169150806000015495505091939590929450565b60026020528060005260406000206000915054906101000a900473ffffffffffffffffffffffffffffffffffffffff1681565b60045481565b60008273ffffffffffffffffffffffffffffffffffffffff166002600084815260200190815260200160002060009054906101000a900473ffffffffffffffffffffffffffffffffffffffff1673ffffffffffffffffffffffffffffffffffffffff1614905092915050565b600360008373ffffffffffffffffffffffffffffffffffffffff1673ffffffffffffffffffffffffffffffffffffffff16815260200190815260200160002060008154809291906001019190505550816002600083815260200190815260200160002060006101000a81548173ffffffffffffffffffffffffffffffffffffffff021916908373ffffffffffffffffffffffffffffffffffffffff160217905550600073ffffffffffffffffffffffffffffffffffffffff168373ffffffffffffffffffffffffffffffffffffffff16146109dc57600360008473ffffffffffffffffffffffffffffffffffffffff1673ffffffffffffffffffffffffffffffffffffffff16815260200190815260200160002060008154809291906001900391905055505b7fddf252ad1be2c89b69c2b068fc378daa952ba7f163c4a11628f55a4df523b3ef838383604051808473ffffffffffffffffffffffffffffffffffffffff1673ffffffffffffffffffffffffffffffffffffffff1681526020018373ffffffffffffffffffffffffffffffffffffffff1673ffffffffffffffffffffffffffffffffffffffff168152602001828152602001935050505060405180910390a1505050565b6000610a8a610c4a565b6040518060a001604052808581526020014267ffffffffffffffff1681526020018863ffffffff1681526020018763ffffffff1681526020018661ffff168152509050600060018083908060018154018082558091505090600182039060005260206000209060020201600090919290919091506000820151816000015560208201518160010160006101000a81548167ffffffffffffffff021916908367ffffffffffffffff16021790555060408201518160010160086101000a81548163ffffffff021916908363ffffffff160217905550606082015181600101600c6101000a81548163ffffffff021916908363ffffffff16021790555060808201518160010160106101000a81548161ffff021916908361ffff16021790555050500390507f0a5311bd2a6608f08a180df2ee7c5946819a649b204b554bb8e39825b2c50ad584828a8a89604051808673ffffffffffffffffffffffffffffffffffffffff1673ffffffffffffffffffffffffffffffffffffffff1681526020018581526020018481526020018381526020018281526020019550505050505060405180910390a1610c3c600085836108b6565b809250505095945050505050565b6040518060a0016040528060008152602001600067ffffffffffffffff168152602001600063ffffffff168152602001600063ffffffff168152602001600061ffff168152509056fe2072656365697665722063616e6e6f7420626520746865207a65726f20616464726573732ea265627a7a723158207ec5d1afa7d1cdd6c640742e84d9f6daa672eec6df7c9e5ac08d843eb619fa6c64736f6c634300050c0032",
  "source": "pragma solidity ^0.5.12;\n\nimport \"./IERC721.sol\";\nimport \"./Safemath.sol\";\nimport \"./Ownable.sol\";\n\ncontract Piggycontract is IERC721, Ownable {\n\n\tusing SafeMath for uint256;\n\n\tuint256 public constant CREATION_LIMIT_GEN0 = 10;\n\tstring public constant name = \"CoronaPigs\";\n\tstring public constant symbol = \"CPG\";\n\n\tevent Birth(\n\t\taddress owner, \n\t\tuint256 pigId,\n\t\tuint256 mumId,\n\t\tuint256 dadId, \n\t\tuint256 genes\n\t);\n\n\tevent Transfer(\n\t\taddress _from, \n\t\taddress _to, \n\t\tuint256 _tokenId\n \t);\n\n\tstruct Piggy {\n\t\tuint256 genes;\n\t\tuint64 birthTime;\n\t\tuint32 mumId;\n\t\tuint32 dadId;\n\t\tuint16 generation;\n\t}\n\n\tPiggy[] piggies;\n\n\tmapping (uint256 => address) public PiggyIndexToOwner;\n\tmapping (address => uint256) ownershipTokenCount;\n\t\n\tuint256 public gen0Counter;\n\n\tfunction createPiggyGen0(uint256 _genes, address _owner) public onlyOwner returns(uint256){\n\t\trequire(gen0Counter < CREATION_LIMIT_GEN0);\n\n\t\tgen0Counter++;\n\n\t\treturn _createPiggy(0, 0, 0, _genes, _owner);\n\t}\n\t\n\tfunction _createPiggy(\n\t\tuint256 _mumId,\n\t\tuint256 _dadId,\n\t\tuint256 _generation,\n\t\tuint256 _genes,\n\t\taddress _owner\n\n\t) private returns (uint256) {\n\t\tPiggy memory _piggy = Piggy({\n\t\t\tgenes: _genes,\n\t\t\tbirthTime: uint64(now),\n\t\t\tmumId: uint32(_mumId),\n\t\t\tdadId: uint32(_dadId),\n\t\t\tgeneration: uint16(_generation)\n\t\t});\n\n\t\tuint256 newPigId = piggies.push(_piggy)-1;\n\t\t\n\t\temit Birth(_owner, newPigId, _mumId, _dadId, _genes);\n\n\t\t_transfer(address(0), _owner, newPigId);\n\t\t\n\t\treturn newPigId;\n\t}\n\n    function getPiggy(uint256 pigId) external view returns(\n    \tuint256 genes,\n\t\tuint64 birthTime,\n\t\tuint32 mumId,\n\t\tuint32 dadId,\n\t\tuint16 generation\n    )\n    {\n    \tPiggy storage piggy = piggies[pigId];\n    \t\n    \tbirthTime = uint64(piggy.birthTime);\n    \tmumId = uint32(piggy.mumId);\n    \tdadId = uint32(piggy.dadId);\n    \tgeneration = uint16(piggy.generation);\n    \tgenes = piggy.genes;\n    }\n\n    function balanceOf(address owner) external view returns (uint256 balance){\n    \treturn ownershipTokenCount[owner];\n\t}\n\n\tfunction totalSupply() external view returns (uint256 total){\n\t\treturn piggies.length;\n\t}\n\n\tfunction ownerOf(uint256 tokenId) external view returns (address owner){\n\t\treturn PiggyIndexToOwner[tokenId];\n\t}\n\n\tfunction transfer(address _to, uint256 _tokenId) external{\n\t\trequire(_to != address(0), \" receiver cannot be the zero address.\");\n        require(_to != address(this));\n        require(_owns(msg.sender, _tokenId));\n\n        _transfer(msg.sender,_to, _tokenId);\n\t}\n\n    function _transfer(address _from, address _to, uint256 _tokenId) internal{\n    \t\n        ownershipTokenCount[_to]++;\n        PiggyIndexToOwner[_tokenId] = _to;\n\n        if(_from!= address(0)){\n        \townershipTokenCount[_from]--;\n        }\n        emit Transfer(_from,_to,_tokenId);\n    }\n\n    function _owns(address _claimant, uint256 _tokenId) internal view returns(bool){\n    \treturn PiggyIndexToOwner[_tokenId] == _claimant; \n    }\n}\n\n\n\n",
  "sourcePath": "/home/danemathorch/REPO/Project_P.I.G./contracts/Piggycontract.sol",
  "compiler": {
    "name": "solc",
    "version": "0.5.12+commit.7709ece9.Emscripten.clang"
  },
  "schemaVersion": "3.4.0",
  "updatedAt": "2021-05-08T10:40:40.293Z",
  "networkType": "ethereum",
  "devdoc": {
    "methods": {}
  },
  "userdoc": {
    "methods": {}
  }
}